:020000040800F2
:1000000090020020550A0008000000007902000854
:1000100000000000000000000000000000000000E0
:1000200000000000000000000000000000000000D0
:1000300000000000000000000000000000000000C0
:1000400000000000000000000000000000000000B0
:100050000000000061020008000000000000000035
:1000600000000000470300084F03000800000000E4
:100070000000000000000000000000000000000080
:100080000000000000000000000000000000000070
:100090000000000000000000000000000000000060
:1000A000000000000508000800000000000000003B
:1000B00000F002F800F040F80CA030C8083824180E
:1000C0002D18A246671EAB4654465D46AC4201D190
:1000D00000F032F87E460F3E0FCCB6460126334282
:1000E00000D0FB1AA246AB4633431847D40A00009F
:1000F000F40A0000103A02D378C878C1FAD852073F
:1001000001D330C830C101D504680C6070470000CD
:100110000023002400250026103A01D378C1FBD823
:10012000520700D330C100D50B6070471FB5C046E1
:10013000C0461FBD10B510BD00F05AFC1146FFF7B8
:10014000F5FF00F054F800F072FC03B4FFF7F2FF83
:1001500003BC00F077FC000070B505460C4616465F
:1001600002E00FCC0FC5103E102EFAD2082E02D39B
:1001700003CC03C5083E042E07D301CC01C5361FAE
:1001800003E021782970641C6D1C761EF9D270BDC5
:1001900030B50446012B02D0022B11D108E000201B
:1001A00003E015182560241D401C8842F9DB07E098
:1001B000002002E02260241D401C8842FADB00BFC0
:1001C00000BF30BD50601180704710B503460A462D
:1001D000002107E0585C545CA04201D0002010BD13
:1001E000481CC1B2505C0028F4D10120F7E78AB066
:1001F000012107910021069123A002900D2168465C
:10020000017306A8019007A8089000BF0121099179
:10021000079100BF6846017F481CC2B207920029BF
:10022000F8D10120079000BF0598009001A80FC8E1
:1002300000F039FB0028F7D000BF6846017F481C5A
:10024000C2B207920029F8D1E0E706E0FF21F531BC
:1002500000BF4A1E1100FCD1401E0028F6DC70478A
:100260000D480068C0430C4908600C4840690121F2
:1002700008430A494861704700BF0146421CD0B29A
:100280000029FAD17047000048656C6C6F20576FE9
:10029000726C642121000000000000200004014075
:1002A00010480068012108430E49086000BF0D484E
:1002B0000068022108400028F9D00A4840688008F8
:1002C00080000849486000BF06484068C0210840D7
:1002D0000028F9D10348406907214904084301492E
:1002E000486170470010024030B50024274DAC60D3
:1002F0002C4661612261E360002806D0012808D005
:1003000002280AD0032811D10CE0214C1F4DAC600B
:1003100010E0204C1D4DAC600CE01E4C103C1B4D01
:10032000AC6007E01C4C194DAC6003E00024174D95
:10033000AC6000BF00BF30BD1848406901210843D0
:10034000164948617047704770477047704710B54D
:100350000E48006810210840002807D00B480068AC
:1003600020210840002801D000F0C3F907480068A8
:10037000FF2101310840002807D0044800684900E7
:100380000840002801D000F030FA10BD0000024003
:10039000C14A0000F10A00002109000000100240DB
:1003A0000020FD490860C860087448600872704702
:1003B00010B5F9480068002803D00120F649096803
:1003C0000870FFF7EDFF0020F4490870487088704E
:1003D00010BD0FB410B504460120F049087008465E
:1003E0004470142203A9EC48FFF7B6FE0020EA4946
:1003F0000968087010BC08BC04B01847E8480068D9
:10040000012189020843E649086008460068012185
:1004100049060843E24908607047012802D00228D3
:100420007ED193E00021DF4AD1611146C9690322E0
:1004300012039143DB4AD1611146C969032292023A
:100440009143D84AD1611146C969032212029143EE
:10045000D44AD1611146C96980229143D14AD16100
:100460001146C96940229143CE4AD1611146C969FA
:1004700020229143CB4AD1611146C96949094901FA
:10048000D1611146C96908229143C64AD16111461A
:10049000C96904229143C34AD1611146C969022244
:1004A0001143C04AD161C0495162BB49097A116206
:1004B000BE499162002111631146096B03221203A8
:1004C0009143B84A11631146096B0322920291438A
:1004D000B44A11631146096B032212029143B14AD7
:1004E00011631146096B80221143AE4A1163114614
:1004F000096B40229143AB4A11631146096B2022DC
:100500009143A84A11631146096B10221143A54A71
:1005100011631146096B08229143A24A116300E05E
:10052000A6E01146096B042291439E4A11631146CD
:10053000096B022211439B4A11639B4991639649BF
:10054000097A516394494968D16370470021954AFB
:10055000D1611146C969032212039143914AD161C5
:100560001146C9690322920291438E4AD161114614
:10057000C9690322120291438A4AD1611146C969AD
:1005800080221143874AD1611146C96940229143B3
:10059000844AD1611146C96920229143814AD161BF
:1005A0001146C96949094901D1611146C969082241
:1005B00091437C4AD1611146C96904229143794A29
:1005C000D1611146C96902221143764AD161764947
:1005D00051627149097C11626F49C96891620021B9
:1005E00011631146096B0322120391436D4A116393
:1005F0001146096B0322920291436A4A1163114624
:10060000096B032212029143664A11631146096B7A
:1006100080229143634A11631146096B4022914342
:10062000604A11631146096B202291435D4A1163B0
:100630001146096B102211435A4A11631146096B86
:1006400008229143574A11631146096B04229143D2
:10065000544A11631146096B02221143514A116336
:10066000514991634C49097C51635149D1636CE70D
:1006700000BF6AE710B50446012C06D0022C14D046
:10068000032C22D0042C22D120E00120FFF7C5FE4C
:100690004448C069012108434249C8610846006BCB
:1006A000012108433F49086310BD0220FFF7B5FE52
:1006B0003C48C069012108433A49C8610846006BBB
:1006C0000121084337490863EEE7EDE7ECE700BF97
:1006D000EAE704E034480C38C0683449086032481E
:1006E0000C3880680321490208400028F2D1704785
:1006F000704710B52B48006B40084000294908633B
:1007000026484078012806D0022809D003280CD0BA
:10071000042852D126E0FFF7DCFFFFF749FE52E044
:10072000FFF7D7FFFFF744FE4DE01C488078002814
:1007300002D0012814D112E001201849887002204B
:10074000FFF76BFE1748C069012108431549C861CE
:100750000846006B012108431249086310BD2DE0D3
:1007600000BF30E00D488078002802D0012822D157
:1007700020E0012009498870FFF74FFE0948C06951
:10078000012108430749C8610846006B012108435D
:1007900004490863E2E700001C0000201800002064
:1007A00000E100E0000002400C3001401400002095
:1007B000BC0B000802E000BF05E000BFFFF789FFA7
:1007C000FFF7F6FD00BF00BF8448406810210843D2
:1007D0008249486000BF8248806880210840002824
:1007E000F9D100F0CBF900BFB8E77C48006B4008B6
:1007F00040007A49086308464068891508437749EC
:100800004860704700BFFEE710B500F0B7F900BFC1
:100810007448C0680121090308437249C86008464A
:10082000C068891488436F49C86008468069891484
:1008300008436C498861084640690121490408431E
:100840006849486108464069012108436549486193
:1008500000BF00BF0920C0060068552149020843B7
:100860000921C906086008464068F021884309212B
:10087000C90648600846C068552109020843092195
:10088000C906C8600846006AC0B2086200BF00F02E
:10089000F7F8FFF7B3FDFFF78BFDFFF781FD0120B0
:1008A0005149087010BD0FB41CB50598002806D03A
:1008B0006846007E002802D00498002804D1032056
:1008C0001CBC08BC04B0184747480078002801D178
:1008D000FFF79AFF45480078002801D00020EFE795
:1008E00000F04CF90899079801910090012004A9A3
:1008F0000EC9FFF76EFDFFF7ECFE0120FFF7BAFE11
:1009000000F046F90120DBE70FB41CB5079800287A
:1009100006D008A80078002802D00498002804D146
:1009200003201CBC08BC04B018472F4800780028DE
:1009300001D1FFF769FF2D480078002801D0002081
:10094000EFE700F01BF90899079801910090022049
:1009500004A90EC9FFF73DFDFFF7BBFE0220FFF71C
:1009600089FE00F015F90120DBE70FB41CB50598EE
:1009700000280DD06846007E002809D0079800287E
:1009800006D008A80078002802D00498002804D1D6
:1009900003201CBC08BC04B018471348007800288A
:1009A00001D1FFF731FF11480078002801D0002065
:1009B000EFE700F0E3F80899079801910090032011
:1009C00004A90EC9FFF705FDFFF783FE0120FFF71D
:1009D00051FE00F0DDF80120DBE7000000000240DE
:1009E00000300140001002401000002018000020DC
:1009F000754600F023F8AE46050069465346C00828
:100A0000C000854618B020B500F0CCF860BC0027C7
:100A10004908B6460026C0C5C0C5C0C5C0C5C0C5CA
:100A2000C0C5C0C5C0C5403D49008D46704704469D
:100A3000C046C0462046FFF788FB000000487047CC
:100A40003000002001491820ABBEFEE7260002005E
:100A500070470000044C034D044E024F67510435AB
:100A6000B542FBD400000000000000200020000080
:100A70000148804701480047A1020008B100000872
:100A80003D480068382108403B4908600846006836
:100A90000221884338490860084600684008400041
:100AA000086008460068091588433349086008460D
:100AB00000680121C90388432F490860084600687F
:100AC0000121890388432C49086008460068802179
:100AD00088432949086008460068C91488432649A4
:100AE000086008460068491488432349086008469E
:100AF0000068491588432049086008460068891540
:100B000008431D49086008460068042108431A4943
:100B10000860084640680F2109028843164948606A
:100B20000846406803210902084313494860084603
:100B30004068042108431049486008464068102175
:100B400088430D49486008464068082188430A499F
:100B500048600846406889140843074948600846C9
:100B60004068012108430449486008464068022162
:100B7000084301494860704700300140034800685D
:100B8000402188430149086070470000003001405F
:100B9000034800684021084301490860704700008D
:100BA00000300140002003490022034B7047000041
:100BB0000002000090020020B00B0008FF000000BF
:100BC000E00B0008000000201C000000F4000008FA
:100BD000FC0B00081C00002074020000100100083B
:100BE000FFFFFFFF00000000000000000000000009
:0C0BF000000000000000000000000000F9
:04000005080000B13E
:00000001FF
